:100000000C945D000C9485000C9485000C94850084
:100010000C9485000C9485000C9485000C9485004C
:100020000C9485000C9485000C9485000C9485003C
:100030000C9485000C9485000C9485000C9485002C
:100040000C9460030C9485000C94D0030C94AA03C8
:100050000C9485000C9485000C9485000C9485000C
:100060000C9485000C9485000000000024002700FB
:100070002A0000000008000201000003040700003D
:10008000000000000000010204081020408001026E
:1000900004081020010204081020000000002500C0
:1000A00028002B00040404040404040402020202D5
:1000B0000202030303030303860411241FBECFEFD0
:1000C000D8E0DEBFCDBF11E0A0E0B1E0EAE3F2E1AD
:1000D00002C005900D92A434B107D9F722E0A4E440
:1000E000B1E001C01D92AD30B207E1F710E0CDE5FF
:1000F000D0E004C02197FE010E94E907CC35D1076A
:10010000C9F70E94EB050C941B090C9400003FB743
:10011000F8948091490190914A01A0914B01B091CE
:100120004C0126B5A89B05C02F3F19F00196A11DD3
:10013000B11D3FBFBA2FA92F982F8827BC01CD0131
:10014000620F711D811D911D42E0660F771F881F90
:10015000991F4A95D1F70895AF92BF92CF92DF923F
:10016000EF92FF920F931F93CF93DF936C017B016C
:100170008B01040F151FEB015E01AE18BF08C017FD
:10018000D10759F06991D601ED91FC910190F08170
:10019000E02DC6010995892B79F7C501DF91CF9133
:1001A0001F910F91FF90EF90DF90CF90BF90AF9095
:1001B0000895FC01538D448D252F30E0842F90E06D
:1001C000821B930B541710F0CF9608950197089552
:1001D000FC01918D828D981761F0A28DAE0FBF2F1B
:1001E000B11D5D968C91928D9F5F9F73928F90E071
:1001F00008958FEF9FEF0895FC01918D828D9817E0
:1002000031F0828DE80FF11D858D90E008958FEF1C
:100210009FEF0895FC01918D228D892F90E0805CE5
:100220009F4F821B91098F739927089581E591E073
:100230000E940A0121E0892B09F420E0822F089511
:1002400080E090E0892B29F00E94160181110C9426
:1002500000000895FC01A48DA80FB92FB11DA35A69
:10026000BF4F2C91848D90E001968F739927848FD6
:10027000A689B7892C93A089B1898C9183708064F9
:100280008C93938D848D981306C00288F389E02D9A
:1002900080818F7D80830895EF92FF920F931F934B
:1002A000CF93DF93EC0181E0888F9B8D8C8D981329
:1002B0001AC0E889F989808185FF15C09FB7F89435
:1002C000EE89FF896083E889F98980818370806481
:1002D00080839FBF81E090E0DF91CF911F910F91CC
:1002E000FF90EF900895F62E0B8D10E00F5F1F4FDB
:1002F0000F731127E02E8C8D8E110CC00FB607FCEA
:10030000FACFE889F989808185FFF5CFCE010E9477
:100310002A01F1CFEB8DEC0FFD2FF11DE35AFF4FBA
:10032000F0829FB7F8940B8FEA89FB898081806205
:10033000CFCFCF93DF93EC01888D8823B9F0AA89C2
:10034000BB89E889F9898C9185FD03C0808186FD90
:100350000DC00FB607FCF7CF8C9185FFF2CF8081DF
:1003600085FFEDCFCE010E942A01E9CFDF91CF9129
:100370000895CF92DF92EF92FF920F931F93CF9346
:10038000DF93CDB7DEB729970FB6F894DEBF0FBE67
:10039000CDBF8C01DC0119968D919C91892B09F4BC
:1003A00073C00E948700F801C784D088E188F28872
:1003B0006C157D058E059F0520F46787708B818BFA
:1003C000928BF801C784D088E188F2886C197D0986
:1003D0008E099F096C3271408105910510F3F894E4
:1003E000D80114968D919C9115979A8389831996BB
:1003F000ED91FC917F01BFEFEB1AFB0A80818987A9
:10040000F80190810388F489E02DD80155968C91EC
:10041000992309F448C09081982B98879081809502
:1004200089238F838F818C8388E08B8358856F81AC
:1004300049853B812C8189819A81D701508347FD71
:10044000252F3A952083262F39F0441F00C0000045
:100450006083000000C0F2CF38E04D91608300005F
:10046000019761F7D8015496FC93EE93539749870F
:100470003B832C839A83898378940E948700F801B8
:100480006787708B818B928B29960FB6F894DEBFAD
:100490000FBECDBFDF91CF911F910F91FF90EF90D5
:1004A000DF90CF9008959081982B988790818095C8
:1004B00089238F838F818E8388E08D8358856F8118
:1004C00049853D812E8189819A81D701508347FDDD
:1004D000252F00C000C0208300C000C000C000C0A5
:1004E00000C060830000262F3A9541F0441F0000B1
:1004F00000C000C000C000C000C0E8CF38E04D918F
:1005000000C0608300C0019709F7D8015496FC939E
:10051000EE93539749873D832E83ACCF4F925F92E2
:100520006F927F928F929F92AF92BF92CF92DF9203
:10053000EF92FF920F931F93CF93DF93EFB7F8944F
:10054000C0904D01D0904E01E0904F01F0905001CD
:10055000EFBFEC012197E7E0E89F5001E99FB00C65
:10056000112483E0CC0FDD1F8A95E1F7CE01825183
:100570009E4F4C01DC0119968D919C91092E000C27
:10058000AA0BBB0B26013701481A590A6A0A7B0AD3
:10059000041515052605370508F07AC0F4012581F4
:1005A00036812A153B050CF073C0E091EF01F09104
:1005B000F001C9010196D40116969C938E9315976C
:1005C0008281938128173907D8F5CB01AA27BB2749
:1005D000452E562E672E7724042D142FB084A82E76
:1005E000BB2091F00B2D10E0089F4001099F900C5B
:1005F000189F900C1124A92CB49C20011124052DC6
:10060000B49EA0011124152FA6858185928543856E
:10061000A41333C0D901AA0FBB1F2A0F3B1F820F9F
:10062000931FA385A80FB92FB11DAC92A485A80F65
:10063000B92FB11D0C932585820F911DFC011083EC
:100640008091EF019091F0010E94B901C251DE4FFB
:10065000DA86C98690E080E0DF91CF911F910F91FB
:10066000FF90EF90DF90CF90BF90AF909F908F90D2
:100670007F906F905F904F900895220F331F220F4D
:10068000331F820F931FA80FB92FB11D1C92C9CF22
:10069000C251DE4F8D819E818A159B0509F0DCCF0A
:1006A00081E090E0D9CFFC0101900020E9F731977B
:1006B000AF01481B590BBC0181E591E00C94AC00E3
:1006C0001F920F920FB60F9211242F933F938F9387
:1006D0009F93AF93BF9380914D0190914E01A09154
:1006E0004F01B09150013091480123E0230F2D3785
:1006F00058F50196A11DB11D2093480180934D012D
:1007000090934E01A0934F01B09350018091490105
:1007100090914A01A0914B01B0914C010196A11D0D
:10072000B11D8093490190934A01A0934B01B0936E
:100730004C01BF91AF919F918F913F912F910F905D
:100740000FBE0F901F90189526E8230F0296A11D4B
:10075000B11DD2CF1F920F920FB60F9211242F937B
:100760003F934F935F936F937F938F939F93AF9339
:10077000BF93EF93FF9381E591E00E942A01FF91DF
:10078000EF91BF91AF919F918F917F916F915F9109
:100790004F913F912F910F900FBE0F901F90189582
:1007A0001F920F920FB60F9211242F938F939F9346
:1007B000EF93FF93E0916101F09162018081E091FC
:1007C0006701F091680182FD1BC0908180916A01F0
:1007D0008F5F8F7320916B01821741F0E0916A0166
:1007E000F0E0EF5AFE4F958F80936A01FF91EF91F1
:1007F0009F918F912F910F900FBE0F901F90189582
:100800008081F4CF90E0FC01EE58FF4F2491FC0171
:10081000EA57FF4F3491FC01EC55FF4FE491EE2372
:10082000B9F0222339F02330F1F098F4213009F1A6
:10083000223019F1F0E0EE0FFF1FE656FF4FA591B1
:10084000B4918FB7F894EC9130953E233C938FBFD1
:1008500008952730A9F02830C9F0243059F7809145
:1008600080008F7D03C0809180008F77809380000F
:10087000E1CF84B58F7784BDDDCF84B58F7DFBCF8D
:100880008091B0008F778093B000D4CF8091B0007A
:100890008F7DF9CFCF93DF9390E0FC01EA57FF4FB4
:1008A00024918C559F4FFC0184918823C9F090E0DE
:1008B000880F991FFC01E859FF4FA591B491FC01E5
:1008C000E656FF4FC591D49161110DC09FB7F894C2
:1008D0008C91209582238C938881282328839FBF25
:1008E000DF91CF910895623051F49FB7F8943C9115
:1008F000822F809583238C93E8812E2BEFCF8FB7A7
:10090000F894EC912E2B2C938FBFEACF0F931F936B
:10091000CF93DF93CDB7DEB766970FB6F894DEBFFF
:100920000FBECDBF109254011092530188EE93E098
:10093000A0E0B0E08093550190935601A093570139
:10094000B09358018CE091E0909352018093510153
:1009500085EC90E090935E0180935D0184EC90E0E3
:100960009093600180935F0180EC90E0909362012E
:100970008093610181EC90E0909364018093630126
:1009800082EC90E0909366018093650186EC90E0A4
:10099000909368018093670110926A0110926B0135
:1009A00010926C0110926D011092EE0112E0109302
:1009B000C0001092C5008FEC8093C40010926901B2
:1009C00086E08093C2008091C10080618093C10065
:1009D0008091C10088608093C1008091C1008068CF
:1009E0008093C1008091C1008F7D8093C10062E03F
:1009F00086E00E944A041A821986188A198A1A8A7D
:100A00001B8A81E08F878C871D861E8789838FE3F1
:100A100090E09E838D830E94EF079B878A870097D3
:100A200009F474C02FE3DC011D922A95E9F785E1F2
:100A300090E09C838B8386E090E098878F838A8107
:100A4000882339F061E086E00E944A0486E00E9433
:100A50000204EAEAF0E0E491F0E0EE0FFF1FE65650
:100A6000FF4F859194919D8B8C8BECE8F0E0E491A5
:100A7000EE8BCE0101969093F0018093EF018A8571
:100A80009B850E948B088F81988597FD03C060E04D
:100A90000E944A040091EF011091F001F801868153
:100AA000978197FD08C061E00E944A04D80116961C
:100AB0008C910E94020481E0F80181832091EF0172
:100AC0003091F001D90118966C911897633349F170
:100AD00019960D911C916150F1F070E08FEF92E347
:100AE0000E94B307F801D90114964D915C91CF0192
:100AF000801B910B8417950788F44081469FC001A5
:100B0000479F900D112490833196EDCF1E821D8258
:100B10001C821B8290CF70E060E0E4CF83E3F90198
:100B200080878091EF019091F0010E94B90181E0EE
:100B300090E09093F2018093F1011092F8011092ED
:100B4000F7011092F4011092F30182E090E090938B
:100B5000FA018093F90187E090E09093FC01809383
:100B6000FB01109200021092FF018EE090E0909342
:100B700006028093050223E030E0309302022093C6
:100B800001029093040280930302109208021092D3
:100B9000070285E190E09093F6018093F501809142
:100BA000EF019091F001892B99F08AE191E00E9488
:100BB000530380E391E00E94530366960FB6F894C6
:100BC000DEBF0FBECDBFDF91CF911F910F91089572
:100BD00083E391E0ECCFCF93DF93CDB7DEB7A3975C
:100BE0000FB6F894DEBF0FBECDBF789484B5826097
:100BF00084BD84B5816084BD85B5826085BD85B5C1
:100C0000816085BD80916E00816080936E0010923E
:100C100081008091810082608093810080918100B9
:100C2000816080938100809180008160809380004A
:100C30008091B10084608093B1008091B0008160A8
:100C40008093B00080917A00846080937A008091D4
:100C50007A00826080937A0080917A00816080932C
:100C60007A0080917A00806880937A001092C100A7
:100C70008AE0482E512C612C712C9EE0892E912CFB
:100C800025E1222E312C8091000190910101892BC8
:100C900009F4ACC08FB7F894C0904D01D0904E01CC
:100CA000E0904F01F09050018FBF809144019091EE
:100CB0004501A0914601B0914701C81AD90AEA0A34
:100CC000FB0A81EDC81687E0D806E104F10408F4B8
:100CD00057C00AEF10E020E030E040E050E06FEF56
:100CE00070E081E090E00E948E0291EAC9169FE0D8
:100CF000D906E104F10408F443C00AEF10E020E053
:100D000030E040E05FEF6FEF70E081E090E00E9444
:100D10008E020AEF10E020E030E040E05FEF6FEF7E
:100D200070E082E090E00E948E02E1E7CE16E7E1FB
:100D3000DE06E104F10420F10AEF10E020E030E0EB
:100D400040E05FEF60E070E081E090E00E948E02A2
:100D50000AEF10E020E030E040E05FEF60E070E09C
:100D600082E090E00E948E020AEF10E020E030E086
:100D700040E05FEF60E070E083E090E00E948E0270
:100D80008091030290910402459769F5E091EF018B
:100D9000F091F0014481558170E060E08185928599
:100DA0000E9414098091EF019091F0010E94B90115
:100DB0001092440110924501109246011092470191
:100DC00090E080E0909301018093000180E090E04A
:100DD000892B09F458CF0E941601882309F453CFB8
:100DE0000E94000050CF81E090E0ECCF8091EE01B6
:100DF000882309F48FC00EEE12E020E030E04FEFC0
:100E000050E060E070E081E090E00E948E026C01B2
:100E10000EEE12E020E030E04FEF50E060E070E0D6
:100E200082E090E00E948E025C010EEE12E020E073
:100E300030E04FEF50E060E070E083E090E00E942F
:100E40008E029BA38AA30D2C000CEE08FF08F7FE70
:100E500074C06DE281E591E00E944C0122273327A6
:100E6000A9012C193D094E095F0919A28E010F5DD8
:100E70001F4FCA01B901A30192010E94C707605D1B
:100E8000F80162938F01211531054105510589F75C
:100E90000115110519F0C8010E945303AA94AB284B
:100EA00029F08AA19BA1019709F090CF81E090E001
:100EB0009093F2018093F1011092F8011092F701E2
:100EC0001092F4011092F30182E090E09093FA0105
:100ED0008093F901E7E0F0E0F093FC01E093FB017F
:100EE000109200021092FF01909206028092050279
:100EF00083E090E0909302028093010290920402BA
:100F00008092030210920802109207023092F601BA
:100F10002092F501E091EF01F091F00144815581BB
:100F200070E060E0818592850E9414098091EF0154
:100F30009091F0010E94B90149CFA701960119A231
:100F40008E010F5D1F4FCA01B901A30192010E94DA
:100F5000C707605DF80162938F01211531054105D6
:100F6000510589F795CFAA1BBB1B51E107C0AA1FEA
:100F7000BB1FA617B70710F0A61BB70B881F991F3A
:100F80005A95A9F780959095BC01CD010895A1E2ED
:100F90001A2EAA1BBB1BFD010DC0AA1FBB1FEE1FF3
:100FA000FF1FA217B307E407F50720F0A21BB30B3E
:100FB000E40BF50B661F771F881F991F1A9469F7BA
:100FC00060957095809590959B01AC01BD01CF0116
:100FD0000895EE0FFF1F0590F491E02D09940F93F3
:100FE0001F93CF93DF938230910510F482E090E05D
:100FF000E0910B02F0910C0230E020E0B0E0A0E0C4
:10100000309799F42115310509F44AC0281B390B92
:1010100024303105D8F58A819B816115710589F1EC
:10102000FB0193838283FE0111C0408151810281C3
:10103000138148175907E0F04817590799F410979A
:1010400061F012960C93129713961C933296CF016F
:10105000DF91CF911F910F91089500930B02109390
:101060000C02F4CF2115310551F04217530738F027
:10107000A901DB019A01BD01DF01F801C1CFEF0138
:10108000F9CF90930C0280930B02CDCFFE01E20FBB
:10109000F31F819391932250310939832883D7CF4D
:1010A0002091090230910A02232B41F4209104017E
:1010B0003091050130930A02209309022091020128
:1010C000309103012115310541F42DB73EB7409110
:1010D000060150910701241B350BE0910902F091A4
:1010E0000A02E217F307A0F42E1B3F0B281739075B
:1010F00078F0AC014E5F5F4F2417350748F04E0F74
:101100005F1F50930A0240930902819391939FCFEE
:10111000F0E0E0E09CCFCF93DF930097E9F0FC0193
:10112000329713821282A0910B02B0910C02ED0152
:1011300030E020E01097A1F420813181820F931FCD
:101140002091090230910A022817390709F061C07D
:10115000F0930A02E0930902DF91CF910895EA012A
:10116000CE17DF07E8F54A815B819E0141155105E5
:10117000B1F7E901FB83EA8349915991C40FD51F67
:10118000EC17FD0761F4808191810296840F951F11
:10119000E90199838883828193819B838A83F0E02C
:1011A000E0E012968D919C9113970097B9F52D91DF
:1011B0003C911197CD010296820F931F2091090255
:1011C00030910A022817390739F6309751F51092F5
:1011D0000C0210920B02B0930A02A0930902BCCF3A
:1011E000D383C28340815181840F951FC817D907CB
:1011F00061F44E5F5F4F88819981480F591F518379
:1012000040838A819B81938382832115310509F074
:10121000B0CFF0930C02E0930B029ECFFD01DC01F6
:10122000C0CF13821282D7CFDC0101C06D93415031
:0A1230005040E0F70895F894FFCF56
:10123A00010000000D028000000000004C01AC001B
:10124A00D90099010A01E800FC00496E69746961D4
:10125A006C69636520436F6D706C656174650A0023
:10126A000D0A00496E697469616C6963652046619B
:04127A00696C0A0091
:00000001FF
