:100000000C945D000C9485000C9485000C94850084
:100010000C9485000C9485000C9485000C9485004C
:100020000C9485000C9485000C9485000C9485003C
:100030000C9485000C9485000C9485000C9485002C
:100040000C945D040C9485000C94CD040C94A704CE
:100050000C9485000C9485000C9485000C9485000C
:100060000C9485000C9485000000000024002700FB
:100070002A0000000000250028002B0004040404CE
:100080000404040402020202020203030303030342
:10009000010204081020408001020408102001021F
:1000A00004081020000000080002010000030407FB
:1000B0000000000000000000810611241FBECFEFE9
:1000C000D8E0DEBFCDBF11E0A0E0B1E0E2E2F0E1B8
:1000D00002C005900D92AC33B107D9F721E0ACE333
:1000E000B1E001C01D92A83EB207E1F710E0CDE5F6
:1000F000D0E004C02197FE010E94E406CC35D10770
:10010000C9F70E94FF040C940F080C94000090E0C3
:10011000FC01EC55FF4F2491FC01E057FF4F349157
:10012000FC01E458FF4FE491EE23B9F0222339F0AB
:100130002330F1F098F4213009F1223019F1F0E088
:10014000EE0FFF1FEE58FF4FA591B4918FB7F894B3
:10015000EC9130953E233C938FBF08952730A9F052
:100160002830C9F0243059F7809180008F7D03C07A
:10017000809180008F7780938000E1CF84B58F7766
:1001800084BDDDCF84B58F7DFBCF8091B0008F77AC
:100190008093B000D4CF8091B0008F7DF9CFCF9302
:1001A000DF9390E0FC01E057FF4F249184589F4F6C
:1001B000FC0184918823C9F090E0880F991FFC010D
:1001C000E859FF4FA591B491FC01EE58FF4FC5913E
:1001D000D49161110DC09FB7F8948C912095822322
:1001E0008C938881282328839FBFDF91CF91089526
:1001F000623051F49FB7F8943C91822F809583230D
:100200008C93E8812E2BEFCF8FB7F894EC912E2BA7
:100210002C938FBFEACF3FB7F89480914301909120
:100220004401A0914501B091460126B5A89B05C0A7
:100230002F3F19F00196A11DB11D3FBFBA2FA92F65
:10024000982F8827BC01CD01620F711D811D911D62
:1002500042E0660F771F881F991F4A95D1F70895CE
:10026000AF92BF92CF92DF92EF92FF920F931F93C4
:10027000CF93DF936C017B018B01040F151FEB0102
:100280005E01AE18BF08C017D10759F06991D601B9
:10029000ED91FC910190F081E02DC6010995892B2B
:1002A00079F7C501DF91CF911F910F91FF90EF90EA
:1002B000DF90CF90BF90AF900895FC01538D448D97
:1002C000252F30E0842F90E0821B930B541710F001
:1002D000CF96089501970895FC01918D828D98170E
:1002E00061F0A28DAE0FBF2FB11D5D968C91928DE6
:1002F0009F5F9F73928F90E008958FEF9FEF089517
:10030000FC01918D828D981731F0828DE80FF11DDF
:10031000858D90E008958FEF9FEF0895FC01918DFA
:10032000228D892F90E0805C9F4F821B91098F73F3
:100330009927089587E491E00E948E0121E0892B9E
:1003400009F420E0822F089580E090E0892B29F0C5
:100350000E949A0181110C9400000895FC01A48D63
:10036000A80FB92FB11DA35ABF4F2C91848D90E0D7
:1003700001968F739927848FA689B7892C93A089BA
:10038000B1898C91837080648C93938D848D981344
:1003900006C00288F389E02D80818F7D80830895D7
:1003A000EF92FF920F931F93CF93DF93EC0181E0C5
:1003B000888F9B8D8C8D98131AC0E889F98980816C
:1003C00085FF15C09FB7F894EE89FF896083E8899F
:1003D000F98980818370806480839FBF81E090E091
:1003E000DF91CF911F910F91FF90EF900895F62E1E
:1003F0000B8D10E00F5F1F4F0F731127E02E8C8DB8
:100400008E110CC00FB607FCFACFE889F9898081FC
:1004100085FFF5CFCE010E94AE01F1CFEB8DEC0F41
:10042000FD2FF11DE35AFF4FF0829FB7F8940B8F19
:10043000EA89FB8980818062CFCFCF93DF93EC0183
:10044000888D8823B9F0AA89BB89E889F9898C91BC
:1004500085FD03C0808186FD0DC00FB607FCF7CF78
:100460008C9185FFF2CF808185FFEDCFCE010E9478
:10047000AE01E9CFDF91CF910895CF92DF92EF9255
:10048000FF920F931F93CF93DF93CDB7DEB72997DA
:100490000FB6F894DEBF0FBECDBF8C010E940B01DA
:1004A000D8011F96CD90DD90ED90FC9052976C1581
:1004B0007D058E059F0528F4F8016787708B818B79
:1004C000928BD8011F96CD90DD90ED90FC905297C5
:1004D0006C197D098E099F096C3271408105910567
:1004E000E8F2F894F801848195819A8389830184E4
:1004F000F285E02D7F012FEFE21AF20A80818F83CF
:10050000D8019C915396ED91FC91549755968C91FE
:10051000992309F448C09081982B98879081809501
:100520008923898789858B8388E08C8358856985B1
:100530004F813C812B8189819A81D701508347FD6E
:10054000252F3A952083262F39F0441F00C0000044
:100550006083000000C0F2CF38E04D91608300005E
:10056000019761F7D8015496FC93EE9353974F830C
:100570003C832B839A83898378940E940B01F80132
:100580006787708B818B928B29960FB6F894DEBFAC
:100590000FBECDBFDF91CF911F910F91FF90EF90D4
:1005A000DF90CF9008959081982B988790818095C7
:1005B0008923898789858D8388E08E83588569851D
:1005C0004F813E812D8189819A81D701508347FDDA
:1005D000252F00C000C0208300C000C000C000C0A4
:1005E00000C060830000262F3A9541F0441F0000B0
:1005F00000C000C000C000C000C0E8CF38E04D918E
:1006000000C0608300C0019709F7D8015496FC939D
:10061000EE9353974F833E832D83ACCFFC01019023
:100620000020E9F73197AF01481B590BBC0187E463
:1006300091E00C9430012F923F924F925F926F9213
:100640007F928F929F92AF92BF92CF92DF92EF9262
:10065000FF920F931F93CF93DF93CDB7DEB7A99788
:100660000FB6F894DEBF0FBECDBF9FA38EA31B01B4
:1006700001E0201A3108E3E0220C331CEA95E1F78F
:10068000820D931D99A788A7DC0119968D909C90E7
:100690001A97EFB7F89440903F0150904001609056
:1006A000410170904201EFBF1596ED91FC9117E06A
:1006B000169FD001179FB00D112481E0EA17FB07A8
:1006C00009F4BFC0B401990C880B990B6301520166
:1006D000A61AB70AC80AD90AC601B5016B3F710547
:1006E0008105910508F4ADC0EA17FB070CF0A9C01D
:1006F00049015A010EA11FA188E191E00E940E0359
:1007000082E291E00E940E03A8A5B9A51596CD90AE
:10071000DC900D2C000CEE08FF08F7FEABC06DE27C
:1007200087E491E00E94D00122273327A9012C19E8
:100730003D094E095F0919A2FE01B1967F01CA0168
:10074000B9012AE030E040E050E00E94C206605D5E
:10075000D7016E937D01211531054105510579F7CA
:10076000E114F10419F0C7010E940E0383E291E045
:100770000E940E03D8011196ED91FC911297A20DE3
:10078000B31D15968D919C9116979C012F5F3F4F3D
:1007900016963C932E9315972281338182179307E7
:1007A00008F03FC06501EE24FF2455274B2D3A2D5C
:1007B000292D2AA33BA34CA35DA34AA1582D6085F4
:1007C000662399F0462F50E04C9D90014D9D300DD1
:1007D0005C9D300D1124C32E4AA1649F9001112409
:1007E000432F689D40011124592DA685618572858E
:1007F0002385A21357C09C01220F331F820F931F22
:10080000680F791FA385A60FB72FB11DCC92A485C1
:10081000A60FB72FB11D4C938585680F711DDB01A5
:100820005C93F80181819281DC0119962D913C91B4
:10083000232B11F00E943D02020D131DF801528678
:100840004186A9960FB6F894DEBF0FBECDBFDF91EB
:10085000CF911F910F91FF90EF90DF90CF90BF90BD
:10086000AF909F908F907F906F905F904F903F9050
:100870002F900895A701960119A2FE01B1967F015C
:10088000CA01B9012AE030E040E050E00E94C2060F
:10089000605DD7016E937D0121153105410551053C
:1008A00079F75ECF880F991F880F991F680F791FFE
:1008B000A60FB72FB11D1C92A5CF1F920F920FB696
:1008C0000F9211242F933F938F939F93AF93BF93D6
:1008D00080913F0190914001A0914101B09142016E
:1008E00030913E0123E0230F2D3758F50196A11DCD
:1008F000B11D20933E0180933F0190934001A0934E
:100900004101B09342018091430190914401A09133
:100910004501B09146010196A11DB11D809343018F
:1009200090934401A0934501B0934601BF91AF91CC
:100930009F918F913F912F910F900FBE0F901F901D
:10094000189526E8230F0296A11DB11DD2CF1F9244
:100950000F920FB60F9211242F933F934F935F93F3
:100960006F937F938F939F93AF93BF93EF93FF9377
:1009700087E491E00E94AE01FF91EF91BF91AF91AA
:100980009F918F917F916F915F914F913F912F91A7
:100990000F900FBE0F901F9018951F920F920FB6D9
:1009A0000F9211242F938F939F93EF93FF93E091D6
:1009B0005701F09158018081E0915D01F0915E0155
:1009C00082FD1BC09081809160018F5F8F732091A9
:1009D0006101821741F0E0916001F0E0E95BFE4FB8
:1009E000958F80936001FF91EF919F918F912F914F
:1009F0000F900FBE0F901F9018958081F4CFCF936A
:100A0000DF93CDB7DEB7E1970FB6F894DEBF0FBE28
:100A1000CDBF789484B5826084BD84B5816084BD87
:100A200085B5826085BD85B5816085BD80916E008C
:100A3000816080936E0010928100809181008260BD
:100A400080938100809181008160809381008091FA
:100A500080008160809380008091B10084608093E9
:100A6000B1008091B00081608093B00080917A00E5
:100A7000846080937A0080917A00826080937A000B
:100A800080917A00816080937A0080917A008068FA
:100A900080937A001092C1001982E0915701F09181
:100AA000580112E01083E0915301F091540110823B
:100AB000E0915501F09156018FEC808310925F0117
:100AC000E0915B01F0915C0186E08083E091590147
:100AD000F0915A01808180618083E0915901F09109
:100AE0005A01808188608083E0915901F0915A0118
:100AF000808180688083E0915901F0915A01808162
:100B00008F7D808362E086E00E94CF001D8E1CA254
:100B10001BA61CA61DA61EA681E08AA78FA318A649
:100B200019A78C8F8FE390E099A388A30E94EA060F
:100B30009EA38DA3009709F46EC02FE3DC011D92E4
:100B40002A95E9F785E190E09F8F8E8F86E090E00F
:100B50009BA38AA38D8D882339F061E086E00E94F3
:100B6000CF0086E00E948700E2E8F0E0E491F0E048
:100B7000EE0FFF1FEE58FF4F8591949198AB8FA712
:100B8000E6E9F0E0E491E9ABCE014C969B838A83E1
:100B90008DA19EA10E9486078AA19BA197FD03C0FB
:100BA00060E00E94CF000A811B81F8018681978155
:100BB00097FD08C061E00E94CF00D80116968C9185
:100BC0000E94870081E0F80181832A813B81D9015D
:100BD00018966C91189719960D911C91633331F109
:100BE0006150F1F070E08FEF92E30E94AE06F801E1
:100BF000D90114964D915C91CF01801B910B841704
:100C0000950788F44081469FC001479F900D1124AD
:100C100090833196EDCF19A218A21F8E1E8E96CF0B
:100C200070E060E0E4CF83E3F90180878A819B81F3
:100C3000DC0119962D913C91232B11F00E943D026D
:100C400081E090E09D838C831B861A861F821E8222
:100C500082E090E09D878C8787E090E09F878E8779
:100C60001B8A1A8A8EE090E0998F888F23E030E00B
:100C70003D8B2C8B9F8B8E8B1B8E1A8E85E190E08B
:100C8000998788878A819B81892B41F085E291E051
:100C90000E940E0382E291E00E940E03CE010196B3
:100CA00090933D0180933C0180E0E82E80E0F82E97
:100CB00000913C0110913D0128E234E14FEF50E0FA
:100CC00061E070E0C8010E941B0328E23FEF40E0B2
:100CD00050E062E070E0C8010E941B032FEF38E291
:100CE00040E050E063E070E0C8010E941B03E114A3
:100CF000F104F1F20E949A018823D1F20E940000CF
:100D0000D7CFE7E4F1E01382128288EE93E0A0E00F
:100D1000B0E084839583A683B7838AE091E09183D2
:100D2000808385EC90E09587848784EC90E09787BA
:100D3000868780EC90E0918B808B81EC90E0938BA8
:100D4000828B82EC90E0958B848B86EC90E0978B85
:100D5000868B118E128E138E148E0895AA1BBB1BC8
:100D600051E107C0AA1FBB1FA617B70710F0A61BAB
:100D7000B70B881F991F5A95A9F780959095BC01CC
:100D8000CD010895A1E21A2EAA1BBB1BFD010DC0C7
:100D9000AA1FBB1FEE1FFF1FA217B307E407F5072B
:100DA00020F0A21BB30BE40BF50B661F771F881F07
:100DB000991F1A9469F760957095809590959B019D
:100DC000AC01BD01CF010895EE0FFF1F0590F49116
:100DD000E02D09940F931F93CF93DF9382309105F9
:100DE00010F482E090E0E091E601F091E70130E05C
:100DF00020E0B0E0A0E0309799F42115310509F426
:100E00004AC0281B390B24303105D8F58A819B81D3
:100E10006115710589F1FB0193838283FE0111C085
:100E2000408151810281138148175907E0F048172A
:100E3000590799F4109761F012960C931297139634
:100E40001C933296CF01DF91CF911F910F9108959E
:100E50000093E6011093E701F4CF2115310551F01D
:100E60004217530738F0A901DB019A01BD01DF01E8
:100E7000F801C1CFEF01F9CF9093E7018093E6012C
:100E8000CDCFFE01E20FF31F8193919322503109E0
:100E900039832883D7CF2091E4013091E501232BBA
:100EA00041F420910201309103013093E501209338
:100EB000E40120910001309101012115310541F437
:100EC0002DB73EB74091040150910501241B350B0D
:100ED000E091E401F091E501E217F307A0F42E1B85
:100EE0003F0B2817390778F0AC014E5F5F4F24178E
:100EF000350748F04E0F5F1F5093E5014093E40122
:100F0000819391939FCFF0E0E0E09CCFCF93DF936C
:100F10000097E9F0FC01329713821282A091E6015A
:100F2000B091E701ED0130E020E01097A1F42081BD
:100F30003181820F931F2091E4013091E501281740
:100F4000390709F061C0F093E501E093E401DF9116
:100F5000CF910895EA01CE17DF07E8F54A815B815A
:100F60009E0141155105B1F7E901FB83EA834991DF
:100F70005991C40FD51FEC17FD0761F48081918151
:100F80000296840F951FE90199838883828193815A
:100F90009B838A83F0E0E0E012968D919C911397F9
:100FA0000097B9F52D913C911197CD010296820FD2
:100FB000931F2091E4013091E5012817390739F694
:100FC000309751F51092E7011092E601B093E501D8
:100FD000A093E401BCCFD383C28340815181840FAD
:100FE000951FC817D90761F44E5F5F4F88819981BB
:100FF000480F591F518340838A819B819383828349
:101000002115310509F0B0CFF093E701E093E60137
:101010009ECFFD01DC01C0CF13821282D7CFF8949E
:02102000FFCF00
:101022000000E801800000000000D00130015D01F5
:101032001D028E016C018001436F756E7465723AF8
:1010420020000D0A00496E697469616C696365204C
:0C105200436F6D706C656174650A0000EE
:00000001FF
