:100000000C945D000C9485000C9485000C94850084
:100010000C9485000C9485000C9485000C9485004C
:100020000C9485000C9485000C9485000C9485003C
:100030000C9485000C9485000C9485000C9485002C
:100040000C9468040C9485000C94D8040C94B204AD
:100050000C9485000C9485000C9485000C9485000C
:100060000C9485000C9485000000000024002700FB
:100070002A0000000000250028002B0004040404CE
:100080000404040402020202020203030303030342
:10009000010204081020408001020408102001021F
:1000A00004081020000000080002010000030407FB
:1000B0000000000000000000D00611241FBECFEF9A
:1000C000D8E0DEBFCDBF11E0A0E0B1E0E0ECF0E1B0
:1000D00002C005900D92A234B107D9F721E0A2E445
:1000E000B1E001C01D92AE3EB207E1F710E0CDE5F0
:1000F000D0E004C02197FE010E943307CC35D10720
:10010000C9F70E940A050C945E080C94000090E068
:10011000FC01EC55FF4F2491FC01E057FF4F349157
:10012000FC01E458FF4FE491EE23B9F0222339F0AB
:100130002330F1F098F4213009F1223019F1F0E088
:10014000EE0FFF1FEE58FF4FA591B4918FB7F894B3
:10015000EC9130953E233C938FBF08952730A9F052
:100160002830C9F0243059F7809180008F7D03C07A
:10017000809180008F7780938000E1CF84B58F7766
:1001800084BDDDCF84B58F7DFBCF8091B0008F77AC
:100190008093B000D4CF8091B0008F7DF9CFCF9302
:1001A000DF9390E0FC01E057FF4F249184589F4F6C
:1001B000FC0184918823C9F090E0880F991FFC010D
:1001C000E859FF4FA591B491FC01EE58FF4FC5913E
:1001D000D49161110DC09FB7F8948C912095822322
:1001E0008C938881282328839FBFDF91CF91089526
:1001F000623051F49FB7F8943C91822F809583230D
:100200008C93E8812E2BEFCF8FB7F894EC912E2BA7
:100210002C938FBFEACF3FB7F8948091490190911A
:100220004A01A0914B01B0914C0126B5A89B05C095
:100230002F3F19F00196A11DB11D3FBFBA2FA92F65
:10024000982F8827BC01CD01620F711D811D911D62
:1002500042E0660F771F881F991F4A95D1F70895CE
:10026000AF92BF92CF92DF92EF92FF920F931F93C4
:10027000CF93DF936C017B018B01040F151FEB0102
:100280005E01AE18BF08C017D10759F06991D601B9
:10029000ED91FC910190F081E02DC6010995892B2B
:1002A00079F7C501DF91CF911F910F91FF90EF90EA
:1002B000DF90CF90BF90AF900895FC01538D448D97
:1002C000252F30E0842F90E0821B930B541710F001
:1002D000CF96089501970895FC01918D828D98170E
:1002E00061F0A28DAE0FBF2FB11D5D968C91928DE6
:1002F0009F5F9F73928F90E008958FEF9FEF089517
:10030000FC01918D828D981731F0828DE80FF11DDF
:10031000858D90E008958FEF9FEF0895FC01918DFA
:10032000228D892F90E0805C9F4F821B91098F73F3
:10033000992708958DE491E00E948E0121E0892B98
:1003400009F420E0822F089580E090E0892B29F0C5
:100350000E949A0181110C9400000895FC01A48D63
:10036000A80FB92FB11DA35ABF4F2C91848D90E0D7
:1003700001968F739927848FA689B7892C93A089BA
:10038000B1898C91837080648C93938D848D981344
:1003900006C00288F389E02D80818F7D80830895D7
:1003A000EF92FF920F931F93CF93DF93EC0181E0C5
:1003B000888F9B8D8C8D98131AC0E889F98980816C
:1003C00085FF15C09FB7F894EE89FF896083E8899F
:1003D000F98980818370806480839FBF81E090E091
:1003E000DF91CF911F910F91FF90EF900895F62E1E
:1003F0000B8D10E00F5F1F4F0F731127E02E8C8DB8
:100400008E110CC00FB607FCFACFE889F9898081FC
:1004100085FFF5CFCE010E94AE01F1CFEB8DEC0F41
:10042000FD2FF11DE35AFF4FF0829FB7F8940B8F19
:10043000EA89FB8980818062CFCFCF93DF93EC0183
:10044000888D8823B9F0AA89BB89E889F9898C91BC
:1004500085FD03C0808186FD0DC00FB607FCF7CF78
:100460008C9185FFF2CF808185FFEDCFCE010E9478
:10047000AE01E9CFDF91CF910895CF92DF92EF9255
:10048000FF920F931F93CF93DF93CDB7DEB72997DA
:100490000FB6F894DEBF0FBECDBF8C010E940B01DA
:1004A000D8011F96CD90DD90ED90FC9052976C1581
:1004B0007D058E059F0528F4F8016787708B818B79
:1004C000928BD8011F96CD90DD90ED90FC905297C5
:1004D0006C197D098E099F096C3271408105910567
:1004E000E8F2F894F801848195819A8389830184E4
:1004F000F285E02D7F012FEFE21AF20A80818F83CF
:10050000D8019C915396ED91FC91549755968C91FE
:10051000992309F448C09081982B98879081809501
:100520008923898789858B8388E08C8358856985B1
:100530004F813C812B8189819A81D701508347FD6E
:10054000252F3A952083262F39F0441F00C0000044
:100550006083000000C0F2CF38E04D91608300005E
:10056000019761F7D8015496FC93EE9353974F830C
:100570003C832B839A83898378940E940B01F80132
:100580006787708B818B928B29960FB6F894DEBFAC
:100590000FBECDBFDF91CF911F910F91FF90EF90D4
:1005A000DF90CF9008959081982B988790818095C7
:1005B0008923898789858D8388E08E83588569851D
:1005C0004F813E812D8189819A81D701508347FDDA
:1005D000252F00C000C0208300C000C000C000C0A4
:1005E00000C060830000262F3A9541F0441F0000B0
:1005F00000C000C000C000C000C0E8CF38E04D918E
:1006000000C0608300C0019709F7D8015496FC939D
:10061000EE9353974F833E832D83ACCFFC01019023
:100620000020E9F73197AF01481B590BBC018DE45D
:1006300091E00C943001CF93DF930E940E03EC0104
:1006400088E191E00E940E038C0F9D1FDF91CF91F6
:1006500008952F923F924F925F926F927F928F9266
:100660009F92AF92BF92CF92DF92EF92FF920F9341
:100670001F93CF93DF93CDB7DEB7A5970FB6F8944E
:10068000DEBF0FBECDBF3B01A1E06A1A7108630156
:10069000E3E0CC0CDD1CEA95E1F7DBA2CAA28601FF
:1006A000080F191FD80119964D905C90EFB7F89478
:1006B0008090450190904601A0904701B09048017C
:1006C000EFBF052C000C6608770875016401C4189B
:1006D000D508E608F70826013701ABEF4A165104A2
:1006E0006104710408F4F3C0E7E0E69F6001E79F4E
:1006F000D00C1124DDA2CCA2D80115966D917C916D
:100700006C157D050CF0E3C069017A013C018BE1B9
:1007100091E00E941B03F80125803680032C000C19
:100720004408550857FEADC06DE28DE491E00E948B
:10073000D00122273327A901221933094409550979
:1007400019A28E010F5D1F4F9AE0292E312C412CEA
:10075000512CCA01B901A20191010E941107605DEB
:10076000D8016E938D01211531054105510589F799
:100770000115110519F0C8010E940E0389E191E0ED
:100780000E940E03D3011196ED91FC91AAA1BBA189
:10079000A60DB71D15964D915C911697CA0101964D
:1007A00016969C938E9315978281938148175907CB
:1007B000A8F5870122273327CD2CDE2CEF2CFF2430
:1007C0006C2DA085AA2371F06A2F70E0609FC00194
:1007D000619F900D709F900D1124092FAC9D6001B9
:1007E00011246D2DA685218532858385A81364C0CB
:1007F000CA01880F991F840F951F280F391FA385E1
:10080000A20FB32FB11D0C93A485A20FB32FB11D5E
:100810006C934585240F311DF9011082D301119687
:100820008D919C91FC0121853285232B11F00E9432
:100830003D02EAA1FBA1E60DF71D92868186858126
:100840009681CCA0DDA0C816D90609F040C081E091
:10085000A5960FB6F894DEBF0FBECDBFDF91CF9146
:100860001F910F91FF90EF90DF90CF90BF90AF90CE
:100870009F908F907F906F905F904F903F902F90C0
:100880000895A201910119A28E010F5D1F4F8AE008
:10089000282E312C412C512CCA01B901A201910101
:1008A0000E941107605DF80162938F0121153105E7
:1008B0004105510589F75CCF440F551F440F551F63
:1008C000240F351FA20FB32FB11D1C9298CFC0CF9C
:1008D0001F920F920FB60F9211242F933F938F9375
:1008E0009F93AF93BF938091450190914601A09152
:1008F0004701B09148013091440123E0230F2D3787
:1009000058F50196A11DB11D209344018093450126
:1009100090934601A0934701B0934801809149010B
:1009200090914A01A0914B01B0914C010196A11DFB
:10093000B11D8093490190934A01A0934B01B0935C
:100940004C01BF91AF919F918F913F912F910F904B
:100950000FBE0F901F90189526E8230F0296A11D39
:10096000B11DD2CF1F920F920FB60F9211242F9369
:100970003F934F935F936F937F938F939F93AF9327
:10098000BF93EF93FF938DE491E00E94AE01FF913E
:10099000EF91BF91AF919F918F917F916F915F91F7
:1009A0004F913F912F910F900FBE0F901F90189570
:1009B0001F920F920FB60F9211242F938F939F9334
:1009C000EF93FF93E0915D01F0915E018081E091F2
:1009D0006301F091640182FD1BC0908180916601EA
:1009E0008F5F8F7320916701821741F0E09166015C
:1009F000F0E0E35BFE4F958F80936601FF91EF91EE
:100A00009F918F912F910F900FBE0F901F9018956F
:100A10008081F4CFCF93DF93CDB7DEB7E1970FB6E8
:100A2000F894DEBF0FBECDBF789484B5826084BDDC
:100A300084B5816084BD85B5826085BD85B58160E2
:100A400085BD80916E00816080936E001092810060
:100A5000809181008260809381008091810081601B
:100A600080938100809180008160809380008091DC
:100A7000B10084608093B1008091B0008160809368
:100A8000B00080917A00846080937A0080917A002F
:100A9000826080937A0080917A00816080937A00EE
:100AA00080917A00806880937A001092C100198248
:100AB000E0915D01F0915E0112E01083E091590137
:100AC000F0915A011082E0915B01F0915C018FEC92
:100AD000808310926501E0916101F091620186E0EE
:100AE0008083E0915F01F09160018081806180836B
:100AF000E0915F01F0916001808188608083E091E6
:100B00005F01F0916001808180688083E0915F01E6
:100B1000F091600180818F7D808362E086E00E9499
:100B2000CF001D8E1CA21BA61CA61DA61EA681E022
:100B30008AA78FA318A619A78C8F8FE390E099A39B
:100B400088A30E9439079EA38DA3009709F46EC065
:100B50002FE3DC011D922A95E9F785E190E09F8F54
:100B60008E8F86E090E09BA38AA38D8D882339F039
:100B700061E086E00E94CF0086E00E948700E2E804
:100B8000F0E0E491F0E0EE0FFF1FEE58FF4F85918B
:100B9000949198AB8FA7E6E9F0E0E491E9ABCE0140
:100BA0004C969B838A838DA19EA10E94D5078AA122
:100BB0009BA197FD03C060E00E94CF000A811B81CA
:100BC000F8018681978197FD08C061E00E94CF00FF
:100BD000D80116968C910E94870081E0F8018183EC
:100BE0002A813B81D90118966C91189719960D911D
:100BF0001C91633331F16150F1F070E08FEF92E3BB
:100C00000E94FD06F801D90114964D915C91CF0127
:100C1000801B910B8417950788F44081469FC00183
:100C2000479F900D112490833196EDCF19A218A201
:100C30001F8E1E8E96CF70E060E0E4CF83E3F90153
:100C400080878A819B81DC0119962D913C91232B11
:100C500011F00E943D0281E090E09D838C831B8611
:100C60001A861F821E8282E090E09D878C8787E033
:100C700090E09F878E871B8A1A8A8EE090E0998F7A
:100C8000888F23E030E03D8B2C8B9F8B8E8B1B8ECF
:100C90001A8E85E190E0998788878A819B81892BCC
:100CA00021F085E291E00E941B03CE010196909312
:100CB00043018093420180E0A82E80E0B82E00918D
:100CC0004201109143018FB7F894C0904501D09034
:100CD0004601E0904701F09048018FBFB1EDCB167F
:100CE000B7E0DB06E104F10408F444C020E030E0A2
:100CF0004FEF50E061E070E0C8010E942903E1EA93
:100D0000CE16EFE0DE06E104F104A0F120E03FEFB3
:100D10004FEF50E061E070E0C8010E94290320E03D
:100D20003FEF4FEF50E062E070E0C8010E942903FE
:100D3000F1E7CF16F7E1DF06E104F104D8F020E097
:100D40003FEF40E050E061E070E0C8010E942903FD
:100D500020E03FEF40E050E062E070E0C8010E9418
:100D6000290320E03FEF40E050E063E070E0C8017D
:100D70000E942903D80155968D919C91459721F4A5
:100D80008BE391E00E941B03A114B10409F497CFF7
:100D90000E949A01882309F492CF0E9400008FCF0D
:100DA000EDE4F1E01382128288EE93E0A0E0B0E07F
:100DB00084839583A683B7838AE091E091838083BF
:100DC00085EC90E09587848784EC90E09787868710
:100DD00080EC90E0918B808B81EC90E0938B828B08
:100DE00082EC90E0958B848B86EC90E0978B868BE1
:100DF000118E128E138E148E0895AA1BBB1B51E107
:100E000007C0AA1FBB1FA617B70710F0A61BB70B7A
:100E1000881F991F5A95A9F780959095BC01CD011F
:100E20000895A1E21A2EAA1BBB1BFD010DC0AA1F2B
:100E3000BB1FEE1FFF1FA217B307E407F50720F043
:100E4000A21BB30BE40BF50B661F771F881F991FBE
:100E50001A9469F760957095809590959B01AC0107
:100E6000BD01CF010895EE0FFF1F0590F491E02D15
:100E700009940F931F93CF93DF938230910510F461
:100E800082E090E0E091EC01F091ED0130E020E0B3
:100E9000B0E0A0E0309799F42115310509F44AC07B
:100EA000281B390B24303105D8F58A819B816115C7
:100EB000710589F1FB0193838283FE0111C040819A
:100EC00051810281138148175907E0F048175907EB
:100ED00099F4109761F012960C93129713961C9345
:100EE0003296CF01DF91CF911F910F91089500931A
:100EF000EC011093ED01F4CF2115310551F04217AB
:100F0000530738F0A901DB019A01BD01DF01F801A7
:100F1000C1CFEF01F9CF9093ED018093EC01CDCFDC
:100F2000FE01E20FF31F819391932250310939831F
:100F30002883D7CF2091EA013091EB01232B41F494
:100F400020910201309103013093EB012093EA01DB
:100F500020910001309101012115310541F42DB797
:100F60003EB74091040150910501241B350BE091DF
:100F7000EA01F091EB01E217F307A0F42E1B3F0BFF
:100F80002817390778F0AC014E5F5F4F24173507FB
:100F900048F04E0F5F1F5093EB014093EA0181939D
:100FA00091939FCFF0E0E0E09CCFCF93DF93009749
:100FB000E9F0FC01329713821282A091EC01B0910A
:100FC000ED01ED0130E020E01097A1F420813181A6
:100FD000820F931F2091EA013091EB012817390706
:100FE00009F061C0F093EB01E093EA01DF91CF914A
:100FF0000895EA01CE17DF07E8F54A815B819E017B
:1010000041155105B1F7E901FB83EA8349915991F3
:10101000C40FD51FEC17FD0761F480819181029602
:10102000840F951FE90199838883828193819B8333
:101030008A83F0E0E0E012968D919C9113970097DF
:10104000B9F52D913C911197CD010296820F931F16
:101050002091EA013091EB012817390739F63097D2
:1010600051F51092ED011092EC01B093EB01A093B9
:10107000EA01BCCFD383C28340815181840F951F85
:10108000C817D90761F44E5F5F4F88819981480F77
:10109000591F518340838A819B81938382832115C9
:1010A000310509F0B0CFF093ED01E093EC019ECF54
:1010B000FD01DC01C0CF13821282D7CFF894FFCF9D
:1010C0000000EE01800000000000D00130015D0151
:1010D0001D028E016C0180010D0A00436F756E7454
:1010E00065723A2000496E697469616C69636520B4
:1010F000436F6D706C656174650A0046696E697353
:02110000680085
:00000001FF
