:100000000C945D000C9485000C9485000C94850084
:100010000C9485000C9485000C9485000C9485004C
:100020000C9485000C9485000C9485000C9485003C
:100030000C9485000C9485000C9485000C9485002C
:100040000C940A040C9485000C947A040C945404C7
:100050000C9485000C9485000C9485000C9485000C
:100060000C9485000C9485000000000024002700FB
:100070002A0000000000250028002B0004040404CE
:100080000404040402020202020203030303030342
:10009000010204081020408001020408102001021F
:1000A00004081020000000080002010000030407FB
:1000B0000000000000000000630711241FBECFEF06
:1000C000D8E0DEBFCDBF11E0A0E0B1E0E4EFF1E1A8
:1000D00002C005900D92A433B107D9F721E0A4E343
:1000E000B1E001C01D92A43EB207E1F710E0CDE5FA
:1000F000D0E004C02197FE010E94C607CC35D1078D
:10010000C9F70E94AC040C94F8080C94000090E02D
:10011000FC01EC55FF4F2491FC01E057FF4F349157
:10012000FC01E458FF4FE491EE23B9F0222339F0AB
:100130002330F1F098F4213009F1223019F1F0E088
:10014000EE0FFF1FEE58FF4FA591B4918FB7F894B3
:10015000EC9130953E233C938FBF08952730A9F052
:100160002830C9F0243059F7809180008F7D03C07A
:10017000809180008F7780938000E1CF84B58F7766
:1001800084BDDDCF84B58F7DFBCF8091B0008F77AC
:100190008093B000D4CF8091B0008F7DF9CFCF9302
:1001A000DF9390E0FC01E057FF4F249184589F4F6C
:1001B000FC0184918823C9F090E0880F991FFC010D
:1001C000E859FF4FA591B491FC01EE58FF4FC5913E
:1001D000D49161110DC09FB7F8948C912095822322
:1001E0008C938881282328839FBFDF91CF91089526
:1001F000623051F49FB7F8943C91822F809583230D
:100200008C93E8812E2BEFCF8FB7F894EC912E2BA7
:100210002C938FBFEACF3FB7F89480913F01909124
:100220004001A0914101B091420126B5A89B05C0B3
:100230002F3F19F00196A11DB11D3FBFBA2FA92F65
:10024000982F8827BC01CD01620F711D811D911D62
:1002500042E0660F771F881F991F4A95D1F70895CE
:10026000AF92BF92CF92DF92EF92FF920F931F93C4
:10027000CF93DF936C017B018B01040F151FEB0102
:100280005E01AE18BF08C017D10759F06991D601B9
:10029000ED91FC910190F081E02DC6010995892B2B
:1002A00079F7C501DF91CF911F910F91FF90EF90EA
:1002B000DF90CF90BF90AF900895FC01538D448D97
:1002C000252F30E0842F90E0821B930B541710F001
:1002D000CF96089501970895FC01918D828D98170E
:1002E00061F0A28DAE0FBF2FB11D5D968C91928DE6
:1002F0009F5F9F73928F90E008958FEF9FEF089517
:10030000FC01918D828D981731F0828DE80FF11DDF
:10031000858D90E008958FEF9FEF0895FC01918DFA
:10032000228D892F90E0805C9F4F821B91098F73F3
:100330009927089583E491E00E948E0121E0892BA2
:1003400009F420E0822F089580E090E0892B29F0C5
:100350000E949A0181110C9400000895FC01A48D63
:10036000A80FB92FB11DA35ABF4F2C91848D90E0D7
:1003700001968F739927848FA689B7892C93A089BA
:10038000B1898C91837080648C93938D848D981344
:1003900006C00288F389E02D80818F7D80830895D7
:1003A000EF92FF920F931F93CF93DF93EC0181E0C5
:1003B000888F9B8D8C8D98131AC0E889F98980816C
:1003C00085FF15C09FB7F894EE89FF896083E8899F
:1003D000F98980818370806480839FBF81E090E091
:1003E000DF91CF911F910F91FF90EF900895F62E1E
:1003F0000B8D10E00F5F1F4F0F731127E02E8C8DB8
:100400008E110CC00FB607FCFACFE889F9898081FC
:1004100085FFF5CFCE010E94AE01F1CFEB8DEC0F41
:10042000FD2FF11DE35AFF4FF0829FB7F8940B8F19
:10043000EA89FB8980818062CFCFCF93DF93EC0183
:10044000888D8823B9F0AA89BB89E889F9898C91BC
:1004500085FD03C0808186FD0DC00FB607FCF7CF78
:100460008C9185FFF2CF808185FFEDCFCE010E9478
:10047000AE01E9CFDF91CF910895CF92DF92EF9255
:10048000FF920F931F93CF93DF93CDB7DEB72997DA
:100490000FB6F894DEBF0FBECDBF8C01DC011996FC
:1004A0008D919C91892B09F473C00E940B01F80176
:1004B000C784D088E188F2886C157D058E059F057C
:1004C00020F46787708B818B928BF801C784D0886A
:1004D000E188F2886C197D098E099F096C327140A0
:1004E0008105910510F3F894D80114968D919C9193
:1004F00015979A8389831996ED91FC917F01BFEF3F
:10050000EB1AFB0A80818987F80190810388F489BE
:10051000E02DD80155968C91992309F448C090811B
:10052000982B98879081809589238F838F818C83E6
:1005300088E08B8358856F8149853B812C81898137
:100540009A81D701508347FD252F3A952083262F86
:1005500039F0441F00C000006083000000C0F2CFEB
:1005600038E04D9160830000019761F7D8015496FF
:10057000FC93EE93539749873B832C839A8389831B
:1005800078940E940B01F8016787708B818B928BA6
:1005900029960FB6F894DEBF0FBECDBFDF91CF9185
:1005A0001F910F91FF90EF90DF90CF900895908171
:1005B000982B98879081809589238F838F818E8354
:1005C00088E08D8358856F8149853D812E818981A1
:1005D0009A81D701508347FD252F00C000C020839A
:1005E00000C000C000C000C000C060830000262F13
:1005F0003A9541F0441F000000C000C000C000C098
:1006000000C0E8CF38E04D9100C0608300C0019782
:1006100009F7D8015496FC93EE93539749873D838D
:100620002E83ACCF2F923F924F925F926F927F9228
:100630008F929F92AF92BF92CF92DF92EF92FF92F2
:100640000F931F93CF93DF9300D000D000D0CDB78E
:10065000DEB749015A012FB7F89440903B01509002
:100660003C0160903D0170903E0149825A826B824C
:100670007C822FBF9B01215031093E832D8347E0AF
:10068000469F9001479F300D1124CD80DE8043E0CE
:10069000CC0CDD1C4A95E1F71601280E391ED1015C
:1006A0001A964D915C911B97052E000C660B770BEB
:1006B000441A550A660A770AB301A201E416F50640
:1006C0000607170708F08BC016964D915C914217EC
:1006D00053070CF084C0DC011296ED91FC919A0155
:1006E0002F5F3F4FD10117963C932E93169722818F
:1006F000338142175307E0F5250166247724332719
:100700002B2D1A2D092D702F682DA085AA2391F06D
:100710006A2F70E0649D7001659DF00C749DF00C73
:1007200011244F2CA09F90011124732FA89D4001EC
:100730001124692D2685A185B2853385231343C0F5
:100740009A01220F331F420F531F4A0F5B1F23854D
:10075000240F352F311DD9014C922485240F352FBC
:10076000311DD9017C932585DA01A20FB11D6C934F
:100770005C01FC01828193810E943D0226014A0CAA
:100780005B1CE981FA81D2011B96FC93EE931A97C8
:1007900090E080E026960FB6F894DEBF0FBECDBF86
:1007A000DF91CF911F910F91FF90EF90DF90CF904D
:1007B000BF90AF909F908F907F906F905F904F9081
:1007C0003F902F900895440F551F440F551F4A0F17
:1007D0005B1F240F352F311DD9011C92B8CF260184
:1007E000480E591ED20116968D919C91821793073F
:1007F00009F0D0CF81E090E0CDCFFC010190002046
:10080000E9F73197AF01481B590BBC0183E491E034
:100810000C9430011F920F920FB60F9211242F9358
:100820003F938F939F93AF93BF9380913B019091A0
:100830003C01A0913D01B0913E0130913A0123E08D
:10084000230F2D3758F50196A11DB11D20933A01B4
:1008500080933B0190933C01A0933D01B0933E01F6
:1008600080913F0190914001A0914101B0914201DE
:100870000196A11DB11D80933F0190934001A0936B
:100880004101B0934201BF91AF919F918F913F91F0
:100890002F910F900FBE0F901F90189526E8230FF1
:1008A0000296A11DB11DD2CF1F920F920FB60F92CB
:1008B00011242F933F934F935F936F937F938F9365
:1008C0009F93AF93BF93EF93FF9383E491E00E94D4
:1008D000AE01FF91EF91BF91AF919F918F917F9169
:1008E0006F915F914F913F912F910F900FBE0F909D
:1008F0001F9018951F920F920FB60F9211242F93ED
:100900008F939F93EF93FF93E0915301F0915401E4
:100910008081E0915901F0915A0182FD1BC09081C4
:1009200080915C018F5F8F7320915D01821741F090
:10093000E0915C01F0E0ED5BFE4F958F80935C01F0
:10094000FF91EF919F918F912F910F900FBE0F907C
:100950001F9018958081F4CFCF93DF93CDB7DEB78A
:10096000E9970FB6F894DEBF0FBECDBF789484B57B
:10097000826084BD84B5816084BD85B5826085BD9B
:1009800085B5816085BD80916E00816080936E0029
:10099000109281008091810082608093810080911B
:1009A00081008160809381008091800081608093CC
:1009B00080008091B10084608093B1008091B0008C
:1009C00081608093B00080917A00846080937A0087
:1009D00080917A00826080937A0080917A008160B1
:1009E00080937A0080917A00806880937A001092D8
:1009F000C10019821A82E0915301F091540112E072
:100A00001083E0914F01F09150011082E09151016B
:100A1000F09152018FEC808310925B01E0915701BD
:100A2000F091580186E08083E0915501F0915601E4
:100A3000808180618083E0915501F0915601808131
:100A400088608083E0915501F09156018081806833
:100A50008083E0915501F091560180818F7D8083E4
:100A600062E086E00E94CF001BA21AA619AA1AAA69
:100A70001BAA1CAA81E088AB8DA71EA61FA78AA36C
:100A80008FE390E09FA38EA30E94CC079CA78BA727
:100A9000009709F46EC02FE3DC011D922A95E9F757
:100AA00085E190E09DA38CA386E090E099A788A7BC
:100AB0008BA1882339F061E086E00E94CF0086E0B8
:100AC0000E948700E2E8F0E0E491F0E0EE0FFF1F03
:100AD000EE58FF4F859194919EAB8DABE6E9F0E027
:100AE000E491EFABCE0182969C838B838BA59CA572
:100AF0000E94680888A599A597FD03C060E00E9440
:100B0000CF000B811C81F8018681978197FD08C079
:100B100061E00E94CF00D80116968C910E94870058
:100B200081E0F80181832B813C81D90118966C9179
:100B30001897633349F119960D911C916150F1F0AA
:100B400070E08FEF92E30E949007F801D9011496AC
:100B50004D915C91CF01801B910B8417950788F410
:100B60004081469FC001479F900D1124908331968C
:100B7000EDCF1FA21EA21DA21CA296CF70E060E0C6
:100B8000E4CF83E3F90180878B819C810E943D0241
:100B900081E090E09E838D831C861B8618861F82D1
:100BA00082E090E09E878D8787E090E0988B8F872A
:100BB0001C8A1B8A8EE090E09A8F898F23E030E0B8
:100BC0003E8B2D8B988F8F8B1C8E1B8E85E190E03A
:100BD0009A8789878B819C81892B41F08AE191E0FA
:100BE0000E94FD0380E391E00E94FD03CE01019687
:100BF00090933901809338012EE0222E312C3AE077
:100C0000432E512C612C712CC0903801D0903901A9
:100C10008091000190910101892B09F49DC08FB74B
:100C2000F89480903B0190903C01A0903D01B090E1
:100C30003E018FBF8091340190913501A091360122
:100C4000B0913701881A990AAA0ABB0AF1ED8F16EA
:100C5000F7E09F06A104B10408F449C01AEFE12EA1
:100C6000F12C00E010E020E030E04FEF50E061E0D8
:100C700070E0C6010E94120381EA88168FE0980690
:100C8000A104B104A0F120E03FEF4FEF50E061E09C
:100C900070E0C6010E94120320E03FEF4FEF50E0EA
:100CA00062E070E0C6010E94120391E7891697E1A5
:100CB0009906A104B104D8F020E03FEF40E050E0F5
:100CC00061E070E0C6010E94120320E03FEF40E0C7
:100CD00050E062E070E0C6010E94120320E03FEFA6
:100CE00040E050E063E070E0C6010E941203D601CC
:100CF00056968D919C915797459759F51296ED917F
:100D0000FC914481558170E060E0818592850E946C
:100D1000F108F601828193810E943D021092340114
:100D200010923501109236011092370190E080E068
:100D30009093010180930001E0E0F0E0EF2B09F4D3
:100D400063CF0E949A01882309F45ECF0E940000BD
:100D50005BCF81E090E0ECCF1EEEE12E12E0F12EB1
:100D600000E010E02FEF30E040E050E061E070E0A4
:100D7000C6010E9412034C012FEF30E040E050E02A
:100D800062E070E0C6010E94120399AF88AF2FEFB6
:100D900030E040E050E063E070E0C6010E941203E2
:100DA0007C01092C000CAA08BB08B7FE76C06DE2D6
:100DB00083E491E00E94D00122273327A90128195A
:100DC00039094A095B0919A28E010F5D1F4FCA013B
:100DD000B901A30192010E94A407605DD8016E933E
:100DE0008D01211531054105510589F701151105C1
:100DF00019F0C8010E94FD0388AD99AD019721F05B
:100E0000EA94EF2809F098CF81E090E0D60115969A
:100E10009C938E9314971B961C921E921A9717966A
:100E20001C921E92169782E090E01D969C938E93E2
:100E30001C97E7E0F0E01F96FC93EE931E97539605
:100E40001C921E92529759963C922E92589783E08C
:100E500090E055969C938E93549757963C922E9281
:100E600056975B961C921E925A9785E190E01996D0
:100E70009C938E9318971296ED91FC914481558125
:100E800070E060E0818592850E94F108D60112969B
:100E90008D919C910E943D024FCFA501940119A212
:100EA0008E010F5D1F4FCA01B901A30192010E947B
:100EB000A407605DF80162938F012115310541059A
:100EC000510589F793CFE3E4F1E01382128288EEB3
:100ED00093E0A0E0B0E084839583A683B7838CE0A1
:100EE00091E09183808385EC90E09587848784EC02
:100EF00090E09787868780EC90E0918B808B81ECE7
:100F000090E0938B828B82EC90E0958B848B86ECC7
:100F100090E0978B868B118E128E138E148E08950F
:100F2000AA1BBB1B51E107C0AA1FBB1FA617B7070F
:100F300010F0A61BB70B881F991F5A95A9F780952B
:100F40009095BC01CD010895A1E21A2EAA1BBB1BEE
:100F5000FD010DC0AA1FBB1FEE1FFF1FA217B30785
:100F6000E407F50720F0A21BB30BE40BF50B661F9B
:100F7000771F881F991F1A9469F76095709580955F
:100F800090959B01AC01BD01CF010895EE0FFF1FAD
:100F90000590F491E02D09940F931F93CF93DF9365
:100FA0008230910510F482E090E0E091E201F0914E
:100FB000E30130E020E0B0E0A0E0309799F42115A3
:100FC000310509F44AC0281B390B24303105D8F506
:100FD0008A819B816115710589F1FB01938382836D
:100FE000FE0111C0408151810281138148175907C8
:100FF000E0F04817590799F4109761F012960C9396
:10100000129713961C933296CF01DF91CF911F91C7
:101010000F9108950093E2011093E301F4CF21159D
:10102000310551F04217530738F0A901DB019A014D
:10103000BD01DF01F801C1CFEF01F9CF9093E301CA
:101040008093E201CDCFFE01E20FF31F81939193D4
:101050002250310939832883D7CF2091E001309184
:10106000E101232B41F420910401309105013093DB
:10107000E1012093E001209102013091030121154B
:10108000310541F42DB73EB740910601509107015B
:10109000241B350BE091E001F091E101E217F30729
:1010A000A0F42E1B3F0B2817390778F0AC014E5FD8
:1010B0005F4F2417350748F04E0F5F1F5093E10133
:1010C0004093E001819391939FCFF0E0E0E09CCFCB
:1010D000CF93DF930097E9F0FC01329713821282DD
:1010E000A091E201B091E301ED0130E020E0109722
:1010F000A1F420813181820F931F2091E001309172
:10110000E1012817390709F061C0F093E101E0938C
:10111000E001DF91CF910895EA01CE17DF07E8F5EE
:101120004A815B819E0141155105B1F7E901FB83BD
:10113000EA8349915991C40FD51FEC17FD0761F45B
:10114000808191810296840F951FE901998388839C
:10115000828193819B838A83F0E0E0E012968D91F7
:101160009C9113970097B9F52D913C911197CD0162
:101170000296820F931F2091E0013091E101281720
:10118000390739F6309751F51092E3011092E201D8
:10119000B093E101A093E001BCCFD383C28340812F
:1011A0005181840F951FC817D90761F44E5F5F4FB7
:1011B00088819981480F591F518340838A819B817F
:1011C000938382832115310509F0B0CFF093E301B9
:1011D000E093E2019ECFFD01DC01C0CF13821282B9
:1011E000D7CFDC0101C06D9341505040E0F7089526
:0411F000F894FFCFA1
:1011F40001000000E401800000000000D001300183
:101204005D011D028E016C018001496E6974696182
:101214006C69636520436F6D706C656174650A0069
:041224000D0A0000AF
:00000001FF
